:100000000C9462000C948A000C948A000C948A0070
:100010000C948A000C948A000C948A000C948A0038
:100020000C948A000C948A000C948A000C948A0028
:100030000C948A000C948A000C948A000C948A0018
:100040000C942F030C948A000C948A000C948A0060
:100050000C948A000C948A000C948A000C948A00F8
:100060000C948A000C948A000000000024002700F1
:100070002A0000000000250028002B0000000000DE
:1000800023002600290004040404040404040202DA
:100090000202020203030303030301020408102007
:1000A0004080010204081020010204081020000012
:1000B0000008000201000003040700000000000027
:1000C00000000E0411241FBECFEFD8E0DEBFCDBF6D
:1000D00011E0A0E0B1E0E8E6F8E002C005900D9282
:1000E000A833B107D9F721E0A8E3B1E001C01D9220
:1000F000A935B207E1F710E0C2E6D0E004C02197CD
:10010000FE010E942C04C136D107C9F70E94790371
:100110000C9432040C940000AF92BF92CF92DF9205
:10012000EF92FF920F931F93CF93DF936C017B01AC
:100130008B01040F151FEB015E01AE18BF08C0173D
:10014000D10759F06991D601ED91FC910190F081B0
:10015000E02DC6010995892B79F7C501DF91CF9173
:100160001F910F91FF90EF90DF90CF90BF90AF90D5
:100170000895833081F028F4813099F08230A9F01D
:1001800008958730A9F08830C9F08430B1F48091A7
:1001900080008F7D03C0809180008F7780938000E6
:1001A000089584B58F7784BD089584B58F7DFBCF86
:1001B0008091B0008F778093B00008958091B00057
:1001C0008F7DF9CFCF93DF93282F30E0F901E255EF
:1001D000FF4F8491F901E656FF4FD491F901EA5798
:1001E000FF4FC491CC23A1F081110E94B900EC2FE4
:1001F000F0E0EE0FFF1FE458FF4FA591B491EC9192
:10020000ED2381E090E009F480E0DF91CF91089543
:1002100080E090E0FACF1F93CF93DF93282F30E058
:10022000F901E255FF4F8491F901E656FF4FD49151
:10023000F901EA57FF4FC491CC23A9F0162F811181
:100240000E94B900EC2FF0E0EE0FFF1FEE58FF4FB9
:10025000A591B4918FB7F894EC91111108C0D09585
:10026000DE23DC938FBFDF91CF911F910895DE2BAA
:10027000F8CFCF93DF9390E0FC01E656FF4F249137
:100280008A579F4FFC0184918823D1F090E0880F1A
:10029000991FFC01E859FF4FA591B491FC01EE585C
:1002A000FF4FC591D491623071F49FB7F8943C919F
:1002B000822F809583238C93E8812E2B28839FBFE8
:1002C000DF91CF9108958FB7F894EC912E2B2C935A
:1002D0008FBFF6CF3FB7F89480913D0190913E01DA
:1002E000A0913F01B091400126B5A89B05C02F3FCA
:1002F00019F00196A11DB11D3FBFBA2FA92F982F4C
:100300008827BC01CD01620F711D811D911D42E046
:10031000660F771F881F991F4A95D1F708958F920E
:100320009F92AF92BF92CF92DF92EF92FF920E9484
:100330006A014B015C0188EEC82E83E0D82EE12CC7
:10034000F12C0E946A01681979098A099B09683EA3
:10035000734081059105A8F321E0C21AD108E10894
:10036000F10888EE880E83E0981EA11CB11CC11410
:10037000D104E104F10429F7FF90EF90DF90CF90D2
:10038000BF90AF909F908F900895089590E080E087
:100390000895FC0101900020E9F73197AF01481B57
:1003A000590BBC0181E491E00C948C00CF93DF9356
:1003B000EC0160E08E810E940B0161E08E810E9461
:1003C0000B0160E08E810E940B018BE891E00197A8
:1003D000F1F7DF91CF910895CF92DF92EF92FF92E4
:1003E0000F931F93CF93DF936C017C0187E0E80E9E
:1003F000F11CD0E0C0E0062F10E0B8010C2E02C0C6
:10040000759567950A94E2F76170F70181917F0114
:100410000E940B012196C430D10579F7C601DF9106
:10042000CF911F910F91FF90EF90DF90CF900C94A0
:10043000D601CF92DF92EF92FF920F931F93CF934B
:10044000DF93EC01F62E642F8C810E940B018D81CD
:100450008F3F19F060E00E940B010F2D10E08F8597
:1004600084FF25C06E0187E0C80ED11CF12CE12C61
:10047000B8010E2C02C0759567950A94E2F7617079
:10048000F60181916F010E940B01FFEFEF1AFF0A45
:1004900088E0E816F10461F7CE01DF91CF911F915A
:1004A0000F91FF90EF90DF90CF900C94D601B801A0
:1004B00084E0759567958A95E1F7CE010E94EC017D
:1004C0006F2DCE01DF91CF911F910F91FF90EF9093
:1004D000DF90CF900C94EC0140E0682F81E491E034
:1004E0000C94190281E00E946C028BE39FE101975A
:1004F000F1F70895CF93DF93823029F49091500162
:10050000986090935001809354011092550180E4BB
:100510008093560180E18093570180E580935801D4
:1005200061E0809145010E943901809146018F3F31
:1005300019F061E00E94390161E0809147010E9459
:100540003901C1E4D1E09E01215431408091500134
:1005500084FD0BC084E090E021962817390744F40D
:1005600061E08E810E943901EECF88E090E0F4CF07
:100570008BE39DE00197F1F760E0809145010E94D7
:100580000B0160E0809147010E940B0180914601C0
:100590008F3F19F060E00E940B018091500184FDB3
:1005A00034C063E081E491E00E94EC01CBE4D6E446
:1005B000CE010197F1F763E081E491E00E94EC0144
:1005C0002197F1F763E081E491E00E94EC0183E57B
:1005D00092E00197F1F762E081E491E00E94EC0182
:1005E0008091500180620E946C0284E080935101EE
:1005F0008CE00E946C020E94720282E080935201A1
:1006000086E0DF91CF910C946C0280620E946C02B4
:100610008BE496E40197F1F78091500180620E948B
:100620006C0283E592E00197F1F7809150018062BE
:100630000E946C02D5CF90915401891710F08FEF72
:10064000890FE82FF0E0EF5BFE4F848980680C94FF
:100650006C0241E00E94190281E090E008951F922F
:100660000F920FB60F9211242F933F938F939F9366
:10067000AF93BF938091390190913A01A0913B01D2
:10068000B0913C013091380123E0230F2D3758F50C
:100690000196A11DB11D20933801809339019093DB
:1006A0003A01A0933B01B0933C0180913D019091B0
:1006B0003E01A0913F01B09140010196A11DB11DE5
:1006C00080933D0190933E01A0933F01B093400180
:1006D000BF91AF919F918F913F912F910F900FBE3E
:1006E0000F901F90189526E8230F0296A11DB11DAB
:1006F000D2CF789484B5826084BD84B5816084BD96
:1007000085B5826085BD85B5816085BD80916E00AF
:10071000816080936E0010928100809181008260E0
:10072000809381008091810081608093810080911D
:1007300080008160809380008091B100846080930C
:10074000B1008091B00081608093B00080917A0008
:10075000846080937A0080917A00826080937A002E
:1007600080917A00816080937A0080917A0080681D
:1007700080937A001092C10082E00E947A0262E0C7
:1007800086E00E94390162E087E00E943901C0E002
:10079000D0E080E00E941B034BE050E06CE071E091
:1007A00081E491E00E948C0086E00E94E2007C01DE
:1007B00087E00E94E2008C01EF28A1F40E947202FF
:1007C00080E00E941B0388E191E00E94C90181E062
:1007D0000E941B0388E291E00E94C9010E948F01E0
:1007E0000E947202012BA1F40E94720280E00E941A
:1007F0001B0388E191E00E94C90181E00E941B0374
:1008000080E391E00E94C9010E948F010E94720260
:10081000209709F4BECF0E940000BBCFE1E4F1E0D5
:100820001382128284E091E0918380838CE0848340
:100830008FEF85838BE0868385E0878384E08087E4
:1008400083E0818782E08287138614861586168668
:10085000178681E00C947A02EE0FFF1F0590F49149
:08086000E02D0994F894FFCF8C
:100868000000000029038C00C601C5014269656EBD
:1008780076656E69646F3A005573746564207072AA
:100888006573696F6E6F3A00426F746F6E20310046
:08089800426F746F6E20320004
:107E0000112484B714BE81FFF0D085E080938100F7
:107E100082E08093C00088E18093C10086E0809377
:107E2000C20080E18093C4008EE0C9D0259A86E02C
:107E300020E33CEF91E0309385002093840096BBD3
:107E4000B09BFECF1D9AA8958150A9F7CC24DD24C4
:107E500088248394B5E0AB2EA1E19A2EF3E0BF2EE7
:107E6000A2D0813461F49FD0082FAFD0023811F036
:107E7000013811F484E001C083E08DD089C08234E0
:107E800011F484E103C0853419F485E0A6D080C0E4
:107E9000853579F488D0E82EFF2485D0082F10E0AE
:107EA000102F00270E291F29000F111F8ED06801E7
:107EB0006FC0863521F484E090D080E0DECF843638
:107EC00009F040C070D06FD0082F6DD080E0C81688
:107ED00080E7D80618F4F601B7BEE895C0E0D1E017
:107EE00062D089930C17E1F7F0E0CF16F0E7DF06D8
:107EF00018F0F601B7BEE89568D007B600FCFDCFD4
:107F0000A601A0E0B1E02C9130E011968C91119780
:107F100090E0982F8827822B932B1296FA010C0160
:107F200087BEE89511244E5F5F4FF1E0A038BF0790
:107F300051F7F601A7BEE89507B600FCFDCF97BE46
:107F4000E89526C08437B1F42ED02DD0F82E2BD052
:107F50003CD0F601EF2C8F010F5F1F4F84911BD097
:107F6000EA94F801C1F70894C11CD11CFA94CF0C13
:107F7000D11C0EC0853739F428D08EE10CD085E9AC
:107F80000AD08FE07ACF813511F488E018D01DD067
:107F900080E101D065CF982F8091C00085FFFCCF94
:107FA0009093C60008958091C00087FFFCCF809118
:107FB000C00084FD01C0A8958091C6000895E0E648
:107FC000F0E098E1908380830895EDDF803219F02E
:107FD00088E0F5DFFFCF84E1DECF1F93182FE3DFCA
:107FE0001150E9F7F2DF1F91089580E0E8DFEE27F6
:047FF000FF270994CA
:027FFE00040479
:0400000300007E007B
:00000001FF
